{
  "_format": "hh-sol-artifact-1",
  "contractName": "Jigsaw",
  "sourceName": "contracts/Jigswa.sol",
  "abi": [
    {
      "inputs": [],
      "stateMutability": "nonpayable",
      "type": "constructor"
    },
    {
      "anonymous": false,
      "inputs": [
        {
          "indexed": true,
          "internalType": "address",
          "name": "owner",
          "type": "address"
        },
        {
          "indexed": true,
          "internalType": "address",
          "name": "approved",
          "type": "address"
        },
        {
          "indexed": true,
          "internalType": "uint256",
          "name": "tokenId",
          "type": "uint256"
        }
      ],
      "name": "Approval",
      "type": "event"
    },
    {
      "anonymous": false,
      "inputs": [
        {
          "indexed": true,
          "internalType": "address",
          "name": "owner",
          "type": "address"
        },
        {
          "indexed": true,
          "internalType": "address",
          "name": "operator",
          "type": "address"
        },
        {
          "indexed": false,
          "internalType": "bool",
          "name": "approved",
          "type": "bool"
        }
      ],
      "name": "ApprovalForAll",
      "type": "event"
    },
    {
      "anonymous": false,
      "inputs": [
        {
          "indexed": true,
          "internalType": "address",
          "name": "from",
          "type": "address"
        },
        {
          "indexed": true,
          "internalType": "address",
          "name": "to",
          "type": "address"
        },
        {
          "indexed": true,
          "internalType": "uint256",
          "name": "tokenId",
          "type": "uint256"
        }
      ],
      "name": "Transfer",
      "type": "event"
    },
    {
      "inputs": [
        {
          "internalType": "address",
          "name": "to",
          "type": "address"
        },
        {
          "internalType": "uint256",
          "name": "tokenId",
          "type": "uint256"
        }
      ],
      "name": "approve",
      "outputs": [],
      "stateMutability": "nonpayable",
      "type": "function"
    },
    {
      "inputs": [
        {
          "internalType": "address",
          "name": "owner",
          "type": "address"
        }
      ],
      "name": "balanceOf",
      "outputs": [
        {
          "internalType": "uint256",
          "name": "",
          "type": "uint256"
        }
      ],
      "stateMutability": "view",
      "type": "function"
    },
    {
      "inputs": [
        {
          "internalType": "uint256",
          "name": "tokenId",
          "type": "uint256"
        },
        {
          "internalType": "string",
          "name": "solution",
          "type": "string"
        }
      ],
      "name": "completePuzzle",
      "outputs": [
        {
          "internalType": "bool",
          "name": "",
          "type": "bool"
        }
      ],
      "stateMutability": "nonpayable",
      "type": "function"
    },
    {
      "inputs": [
        {
          "internalType": "bytes32[]",
          "name": "solution",
          "type": "bytes32[]"
        },
        {
          "internalType": "string[]",
          "name": "uri",
          "type": "string[]"
        }
      ],
      "name": "createNFTs",
      "outputs": [
        {
          "internalType": "bool",
          "name": "",
          "type": "bool"
        }
      ],
      "stateMutability": "nonpayable",
      "type": "function"
    },
    {
      "inputs": [
        {
          "internalType": "uint256",
          "name": "tokenId",
          "type": "uint256"
        }
      ],
      "name": "getApproved",
      "outputs": [
        {
          "internalType": "address",
          "name": "",
          "type": "address"
        }
      ],
      "stateMutability": "view",
      "type": "function"
    },
    {
      "inputs": [
        {
          "internalType": "address",
          "name": "owner",
          "type": "address"
        },
        {
          "internalType": "address",
          "name": "operator",
          "type": "address"
        }
      ],
      "name": "isApprovedForAll",
      "outputs": [
        {
          "internalType": "bool",
          "name": "",
          "type": "bool"
        }
      ],
      "stateMutability": "view",
      "type": "function"
    },
    {
      "inputs": [],
      "name": "name",
      "outputs": [
        {
          "internalType": "string",
          "name": "",
          "type": "string"
        }
      ],
      "stateMutability": "view",
      "type": "function"
    },
    {
      "inputs": [
        {
          "internalType": "uint256",
          "name": "tokenId",
          "type": "uint256"
        }
      ],
      "name": "ownerOf",
      "outputs": [
        {
          "internalType": "address",
          "name": "",
          "type": "address"
        }
      ],
      "stateMutability": "view",
      "type": "function"
    },
    {
      "inputs": [
        {
          "internalType": "address",
          "name": "from",
          "type": "address"
        },
        {
          "internalType": "address",
          "name": "to",
          "type": "address"
        },
        {
          "internalType": "uint256",
          "name": "tokenId",
          "type": "uint256"
        }
      ],
      "name": "safeTransferFrom",
      "outputs": [],
      "stateMutability": "nonpayable",
      "type": "function"
    },
    {
      "inputs": [
        {
          "internalType": "address",
          "name": "from",
          "type": "address"
        },
        {
          "internalType": "address",
          "name": "to",
          "type": "address"
        },
        {
          "internalType": "uint256",
          "name": "tokenId",
          "type": "uint256"
        },
        {
          "internalType": "bytes",
          "name": "_data",
          "type": "bytes"
        }
      ],
      "name": "safeTransferFrom",
      "outputs": [],
      "stateMutability": "nonpayable",
      "type": "function"
    },
    {
      "inputs": [
        {
          "internalType": "address",
          "name": "operator",
          "type": "address"
        },
        {
          "internalType": "bool",
          "name": "approved",
          "type": "bool"
        }
      ],
      "name": "setApprovalForAll",
      "outputs": [],
      "stateMutability": "nonpayable",
      "type": "function"
    },
    {
      "inputs": [
        {
          "internalType": "uint256",
          "name": "",
          "type": "uint256"
        }
      ],
      "name": "solutions",
      "outputs": [
        {
          "internalType": "bytes32",
          "name": "solution",
          "type": "bytes32"
        },
        {
          "internalType": "string",
          "name": "uri",
          "type": "string"
        },
        {
          "internalType": "bool",
          "name": "status",
          "type": "bool"
        }
      ],
      "stateMutability": "view",
      "type": "function"
    },
    {
      "inputs": [
        {
          "internalType": "bytes4",
          "name": "interfaceId",
          "type": "bytes4"
        }
      ],
      "name": "supportsInterface",
      "outputs": [
        {
          "internalType": "bool",
          "name": "",
          "type": "bool"
        }
      ],
      "stateMutability": "view",
      "type": "function"
    },
    {
      "inputs": [],
      "name": "symbol",
      "outputs": [
        {
          "internalType": "string",
          "name": "",
          "type": "string"
        }
      ],
      "stateMutability": "view",
      "type": "function"
    },
    {
      "inputs": [
        {
          "internalType": "uint256",
          "name": "tokenId",
          "type": "uint256"
        }
      ],
      "name": "tokenURI",
      "outputs": [
        {
          "internalType": "string",
          "name": "",
          "type": "string"
        }
      ],
      "stateMutability": "view",
      "type": "function"
    },
    {
      "inputs": [
        {
          "internalType": "address",
          "name": "from",
          "type": "address"
        },
        {
          "internalType": "address",
          "name": "to",
          "type": "address"
        },
        {
          "internalType": "uint256",
          "name": "tokenId",
          "type": "uint256"
        }
      ],
      "name": "transferFrom",
      "outputs": [],
      "stateMutability": "nonpayable",
      "type": "function"
    }
  ],
  "bytecode": "0x60806040523480156200001157600080fd5b50604080518082018252600e81526d119c9858dd1a5bdb985b0813919560921b602080830191825283518085019094526008845267232920a1aa24a7a760c11b908401528151919291620000689160009162000087565b5080516200007e90600190602084019062000087565b5050506200016a565b82805462000095906200012d565b90600052602060002090601f016020900481019282620000b9576000855562000104565b82601f10620000d457805160ff191683800117855562000104565b8280016001018555821562000104579182015b8281111562000104578251825591602001919060010190620000e7565b506200011292915062000116565b5090565b5b8082111562000112576000815560010162000117565b600181811c908216806200014257607f821691505b602082108114156200016457634e487b7160e01b600052602260045260246000fd5b50919050565b611d5a806200017a6000396000f3fe608060405234801561001057600080fd5b50600436106101005760003560e01c806370a0823111610097578063b88d4fde11610066578063b88d4fde1461022c578063bec8cf9d1461023f578063c87b56dd14610252578063e985e9c51461026557600080fd5b806370a08231146101ce57806395d89b41146101ef578063a22cb465146101f7578063b71698c71461020a57600080fd5b806323b872dd116100d357806323b872dd1461018257806342842e0e146101955780636352211e146101a85780636bed4d47146101bb57600080fd5b806301ffc9a71461010557806306fdde031461012d578063081812fc14610142578063095ea7b31461016d575b600080fd5b6101186101133660046116bb565b6102a1565b60405190151581526020015b60405180910390f35b6101356102f3565b6040516101249190611730565b610155610150366004611743565b610385565b6040516001600160a01b039091168152602001610124565b61018061017b366004611778565b61041f565b005b6101806101903660046117a2565b610535565b6101806101a33660046117a2565b6105b0565b6101556101b6366004611743565b6105cb565b6101186101c936600461189d565b610642565b6101e16101dc3660046118e4565b6107d0565b604051908152602001610124565b610135610857565b6101806102053660046118ff565b610866565b61021d610218366004611743565b610875565b6040516101249392919061193b565b61018061023a366004611966565b610923565b61011861024d366004611a96565b6109a5565b610135610260366004611743565b610add565b610118610273366004611b45565b6001600160a01b03918216600090815260056020908152604080832093909416825291909152205460ff1690565b60006001600160e01b031982166380ac58cd60e01b14806102d257506001600160e01b03198216635b5e139f60e01b145b806102ed57506301ffc9a760e01b6001600160e01b03198316145b92915050565b60606000805461030290611b78565b80601f016020809104026020016040519081016040528092919081815260200182805461032e90611b78565b801561037b5780601f106103505761010080835404028352916020019161037b565b820191906000526020600020905b81548152906001019060200180831161035e57829003601f168201915b5050505050905090565b6000818152600260205260408120546001600160a01b03166104035760405162461bcd60e51b815260206004820152602c60248201527f4552433732313a20617070726f76656420717565727920666f72206e6f6e657860448201526b34b9ba32b73a103a37b5b2b760a11b60648201526084015b60405180910390fd5b506000908152600460205260409020546001600160a01b031690565b600061042a826105cb565b9050806001600160a01b0316836001600160a01b031614156104985760405162461bcd60e51b815260206004820152602160248201527f4552433732313a20617070726f76616c20746f2063757272656e74206f776e656044820152603960f91b60648201526084016103fa565b336001600160a01b03821614806104b457506104b48133610273565b6105265760405162461bcd60e51b815260206004820152603860248201527f4552433732313a20617070726f76652063616c6c6572206973206e6f74206f7760448201527f6e6572206e6f7220617070726f76656420666f7220616c6c000000000000000060648201526084016103fa565b6105308383610c70565b505050565b61053f3382610cde565b6105a55760405162461bcd60e51b815260206004820152603160248201527f4552433732313a207472616e736665722063616c6c6572206973206e6f74206f6044820152701ddb995c881b9bdc88185c1c1c9bdd9959607a1b60648201526084016103fa565b610530838383610dd1565b61053083838360405180602001604052806000815250610923565b6000818152600260205260408120546001600160a01b0316806102ed5760405162461bcd60e51b815260206004820152602960248201527f4552433732313a206f776e657220717565727920666f72206e6f6e657869737460448201526832b73a103a37b5b2b760b91b60648201526084016103fa565b600080829050600060028260405161065a9190611bb3565b602060405180830381855afa158015610677573d6000803e3d6000fd5b5050506040513d601f19601f8201168201806040525081019061069a9190611bcf565b60008681526008602052604090205490915081146106fa5760405162461bcd60e51b815260206004820152601260248201527f496e636f727265637420536f6c7574696f6e000000000000000000000000000060448201526064016103fa565b610708600780546001019055565b600061071360075490565b905061071f3382610f6d565b600086815260086020526040902060010180546107c491839161074190611b78565b80601f016020809104026020016040519081016040528092919081815260200182805461076d90611b78565b80156107ba5780601f1061078f576101008083540402835291602001916107ba565b820191906000526020600020905b81548152906001019060200180831161079d57829003601f168201915b50505050506110af565b50600195945050505050565b60006001600160a01b03821661083b5760405162461bcd60e51b815260206004820152602a60248201527f4552433732313a2062616c616e636520717565727920666f7220746865207a65604482015269726f206164647265737360b01b60648201526084016103fa565b506001600160a01b031660009081526003602052604090205490565b60606001805461030290611b78565b610871338383611158565b5050565b6008602052600090815260409020805460018201805491929161089790611b78565b80601f01602080910402602001604051908101604052809291908181526020018280546108c390611b78565b80156109105780601f106108e557610100808354040283529160200191610910565b820191906000526020600020905b8154815290600101906020018083116108f357829003601f168201915b5050506002909301549192505060ff1683565b61092d3383610cde565b6109935760405162461bcd60e51b815260206004820152603160248201527f4552433732313a207472616e736665722063616c6c6572206973206e6f74206f6044820152701ddb995c881b9bdc88185c1c1c9bdd9959607a1b60648201526084016103fa565b61099f84848484611227565b50505050565b60008151835114610a095760405162461bcd60e51b815260206004820152602860248201527f536f6c7574696f6e20616e6420555249206d757374206265207468652073616d6044820152670ca40d8cadccee8d60c31b60648201526084016103fa565b60005b8351811015610ad35760006009546001610a269190611bfe565b90506040518060600160405280868481518110610a4557610a45611c16565b60200260200101518152602001858481518110610a6457610a64611c16565b60209081029190910181015182526000918101829052838252600881526040909120825181558282015180519192610aa492600185019290910190611609565b50604091909101516002909101805460ff19169115159190911790555080610acb81611c2c565b915050610a0c565b5060019392505050565b6000818152600260205260409020546060906001600160a01b0316610b6a5760405162461bcd60e51b815260206004820152603160248201527f45524337323155524953746f726167653a2055524920717565727920666f722060448201527f6e6f6e6578697374656e7420746f6b656e00000000000000000000000000000060648201526084016103fa565b60008281526006602052604081208054610b8390611b78565b80601f0160208091040260200160405190810160405280929190818152602001828054610baf90611b78565b8015610bfc5780601f10610bd157610100808354040283529160200191610bfc565b820191906000526020600020905b815481529060010190602001808311610bdf57829003601f168201915b505050505090506000610c1a60408051602081019091526000815290565b9050805160001415610c2d575092915050565b815115610c5f578082604051602001610c47929190611c47565b60405160208183030381529060405292505050919050565b610c68846112a5565b949350505050565b600081815260046020526040902080546001600160a01b0319166001600160a01b0384169081179091558190610ca5826105cb565b6001600160a01b03167f8c5be1e5ebec7d5bd14f71427d1e84f3dd0314c0f7b2291e5b200ac8c7c3b92560405160405180910390a45050565b6000818152600260205260408120546001600160a01b0316610d575760405162461bcd60e51b815260206004820152602c60248201527f4552433732313a206f70657261746f7220717565727920666f72206e6f6e657860448201526b34b9ba32b73a103a37b5b2b760a11b60648201526084016103fa565b6000610d62836105cb565b9050806001600160a01b0316846001600160a01b03161480610d9d5750836001600160a01b0316610d9284610385565b6001600160a01b0316145b80610c6857506001600160a01b0380821660009081526005602090815260408083209388168352929052205460ff16610c68565b826001600160a01b0316610de4826105cb565b6001600160a01b031614610e485760405162461bcd60e51b815260206004820152602560248201527f4552433732313a207472616e736665722066726f6d20696e636f72726563742060448201526437bbb732b960d91b60648201526084016103fa565b6001600160a01b038216610eaa5760405162461bcd60e51b8152602060048201526024808201527f4552433732313a207472616e7366657220746f20746865207a65726f206164646044820152637265737360e01b60648201526084016103fa565b610eb5600082610c70565b6001600160a01b0383166000908152600360205260408120805460019290610ede908490611c76565b90915550506001600160a01b0382166000908152600360205260408120805460019290610f0c908490611bfe565b909155505060008181526002602052604080822080546001600160a01b0319166001600160a01b0386811691821790925591518493918716917fddf252ad1be2c89b69c2b068fc378daa952ba7f163c4a11628f55a4df523b3ef91a4505050565b6001600160a01b038216610fc35760405162461bcd60e51b815260206004820181905260248201527f4552433732313a206d696e7420746f20746865207a65726f206164647265737360448201526064016103fa565b6000818152600260205260409020546001600160a01b0316156110285760405162461bcd60e51b815260206004820152601c60248201527f4552433732313a20746f6b656e20616c7265616479206d696e7465640000000060448201526064016103fa565b6001600160a01b0382166000908152600360205260408120805460019290611051908490611bfe565b909155505060008181526002602052604080822080546001600160a01b0319166001600160a01b03861690811790915590518392907fddf252ad1be2c89b69c2b068fc378daa952ba7f163c4a11628f55a4df523b3ef908290a45050565b6000828152600260205260409020546001600160a01b03166111395760405162461bcd60e51b815260206004820152602e60248201527f45524337323155524953746f726167653a2055524920736574206f66206e6f6e60448201527f6578697374656e7420746f6b656e00000000000000000000000000000000000060648201526084016103fa565b6000828152600660209081526040909120825161053092840190611609565b816001600160a01b0316836001600160a01b031614156111ba5760405162461bcd60e51b815260206004820152601960248201527f4552433732313a20617070726f766520746f2063616c6c65720000000000000060448201526064016103fa565b6001600160a01b03838116600081815260056020908152604080832094871680845294825291829020805460ff191686151590811790915591519182527f17307eab39ab6107e8899845ad3d59bd9653f200f220920489ca2b5937696c31910160405180910390a3505050565b611232848484610dd1565b61123e8484848461139b565b61099f5760405162461bcd60e51b815260206004820152603260248201527f4552433732313a207472616e7366657220746f206e6f6e20455243373231526560448201527131b2b4bb32b91034b6b83632b6b2b73a32b960711b60648201526084016103fa565b6000818152600260205260409020546060906001600160a01b03166113325760405162461bcd60e51b815260206004820152602f60248201527f4552433732314d657461646174613a2055524920717565727920666f72206e6f60448201527f6e6578697374656e7420746f6b656e000000000000000000000000000000000060648201526084016103fa565b600061134960408051602081019091526000815290565b905060008151116113695760405180602001604052806000815250611394565b80611373846114f3565b604051602001611384929190611c47565b6040516020818303038152906040525b9392505050565b60006001600160a01b0384163b156114e857604051630a85bd0160e11b81526001600160a01b0385169063150b7a02906113df903390899088908890600401611c8d565b602060405180830381600087803b1580156113f957600080fd5b505af1925050508015611429575060408051601f3d908101601f1916820190925261142691810190611cc9565b60015b6114ce573d808015611457576040519150601f19603f3d011682016040523d82523d6000602084013e61145c565b606091505b5080516114c65760405162461bcd60e51b815260206004820152603260248201527f4552433732313a207472616e7366657220746f206e6f6e20455243373231526560448201527131b2b4bb32b91034b6b83632b6b2b73a32b960711b60648201526084016103fa565b805181602001fd5b6001600160e01b031916630a85bd0160e11b149050610c68565b506001949350505050565b6060816115175750506040805180820190915260018152600360fc1b602082015290565b8160005b8115611541578061152b81611c2c565b915061153a9050600a83611cfc565b915061151b565b60008167ffffffffffffffff81111561155c5761155c6117de565b6040519080825280601f01601f191660200182016040528015611586576020820181803683370190505b5090505b8415610c685761159b600183611c76565b91506115a8600a86611d10565b6115b3906030611bfe565b60f81b8183815181106115c8576115c8611c16565b60200101907effffffffffffffffffffffffffffffffffffffffffffffffffffffffffffff1916908160001a905350611602600a86611cfc565b945061158a565b82805461161590611b78565b90600052602060002090601f016020900481019282611637576000855561167d565b82601f1061165057805160ff191683800117855561167d565b8280016001018555821561167d579182015b8281111561167d578251825591602001919060010190611662565b5061168992915061168d565b5090565b5b80821115611689576000815560010161168e565b6001600160e01b0319811681146116b857600080fd5b50565b6000602082840312156116cd57600080fd5b8135611394816116a2565b60005b838110156116f35781810151838201526020016116db565b8381111561099f5750506000910152565b6000815180845261171c8160208601602086016116d8565b601f01601f19169290920160200192915050565b6020815260006113946020830184611704565b60006020828403121561175557600080fd5b5035919050565b80356001600160a01b038116811461177357600080fd5b919050565b6000806040838503121561178b57600080fd5b6117948361175c565b946020939093013593505050565b6000806000606084860312156117b757600080fd5b6117c08461175c565b92506117ce6020850161175c565b9150604084013590509250925092565b634e487b7160e01b600052604160045260246000fd5b604051601f8201601f1916810167ffffffffffffffff8111828210171561181d5761181d6117de565b604052919050565b600067ffffffffffffffff83111561183f5761183f6117de565b611852601f8401601f19166020016117f4565b905082815283838301111561186657600080fd5b828260208301376000602084830101529392505050565b600082601f83011261188e57600080fd5b61139483833560208501611825565b600080604083850312156118b057600080fd5b82359150602083013567ffffffffffffffff8111156118ce57600080fd5b6118da8582860161187d565b9150509250929050565b6000602082840312156118f657600080fd5b6113948261175c565b6000806040838503121561191257600080fd5b61191b8361175c565b91506020830135801515811461193057600080fd5b809150509250929050565b8381526060602082015260006119546060830185611704565b90508215156040830152949350505050565b6000806000806080858703121561197c57600080fd5b6119858561175c565b93506119936020860161175c565b925060408501359150606085013567ffffffffffffffff8111156119b657600080fd5b8501601f810187136119c757600080fd5b6119d687823560208401611825565b91505092959194509250565b600067ffffffffffffffff8211156119fc576119fc6117de565b5060051b60200190565b600082601f830112611a1757600080fd5b81356020611a2c611a27836119e2565b6117f4565b82815260059290921b84018101918181019086841115611a4b57600080fd5b8286015b84811015611a8b57803567ffffffffffffffff811115611a6f5760008081fd5b611a7d8986838b010161187d565b845250918301918301611a4f565b509695505050505050565b60008060408385031215611aa957600080fd5b823567ffffffffffffffff80821115611ac157600080fd5b818501915085601f830112611ad557600080fd5b81356020611ae5611a27836119e2565b82815260059290921b84018101918181019089841115611b0457600080fd5b948201945b83861015611b2257853582529482019490820190611b09565b96505086013592505080821115611b3857600080fd5b506118da85828601611a06565b60008060408385031215611b5857600080fd5b611b618361175c565b9150611b6f6020840161175c565b90509250929050565b600181811c90821680611b8c57607f821691505b60208210811415611bad57634e487b7160e01b600052602260045260246000fd5b50919050565b60008251611bc58184602087016116d8565b9190910192915050565b600060208284031215611be157600080fd5b5051919050565b634e487b7160e01b600052601160045260246000fd5b60008219821115611c1157611c11611be8565b500190565b634e487b7160e01b600052603260045260246000fd5b6000600019821415611c4057611c40611be8565b5060010190565b60008351611c598184602088016116d8565b835190830190611c6d8183602088016116d8565b01949350505050565b600082821015611c8857611c88611be8565b500390565b60006001600160a01b03808716835280861660208401525083604083015260806060830152611cbf6080830184611704565b9695505050505050565b600060208284031215611cdb57600080fd5b8151611394816116a2565b634e487b7160e01b600052601260045260246000fd5b600082611d0b57611d0b611ce6565b500490565b600082611d1f57611d1f611ce6565b50069056fea2646970667358221220268fe4745d95abfe60c6ae153ddd65eb6f3c85a789f4b2827f4ffebb21e2ee4c64736f6c63430008090033",
  "linkReferences": {},
  "deployedLinkReferences": {}
}